:100000000C9435000C945D000C945D000C945D0024
:100010000C945D000C945D000C945D000C945D00EC
:100020000C945D000C945D000C945D000C945D00DC
:100030000C945D000C945D000C945D000C945D00CC
:100040000C94C6000C945D000C942C020C946F026E
:100050000C945D000C945D000C945D000C945D00AC
:100060000C945D000C945D002B0311241FBECFEF98
:10007000D4E0DEBFCDBF11E0A0E0B1E0E2E8F9E0FE
:1000800002C005900D92A832B107D9F711E0A8E29D
:10009000B1E001C01D92AB3DB107E1F710E0CAE647
:1000A000D0E004C02297FE010E94BB04C836D107ED
:1000B000C9F70E9481030C9494040C94000040E85A
:1000C00055E260E070E081E391E00C94AA020F93A6
:1000D0001F93CF93DF93C8E0D1E08E010850114009
:1000E00080910601909107010817190724F561E135
:1000F00071E081E391E00E94CC034AE050E0B80156
:1001000081E391E00E948C0463E171E081E391E07E
:100110000E94CC0389910E94A9004AE050E0BC01F2
:1001200081E391E00E948C0465E171E081E391E05C
:100130000E94CC03D2CF81E391E00E94D50368EE08
:1001400073E080E090E0DF91CF911F910F910C94CC
:1001500033018E3008F08E5087702091100190E4AA
:10016000299F90011124822B80937C0080917A003A
:10017000806480937A0080917A0086FDFCCF809124
:1001800078002091790090E0922B08951F920F92B1
:100190000FB60F9211242F933F938F939F93AF939A
:1001A000BF938091290190912A01A0912B01B091D8
:1001B0002C013091280123E0230F2D3720F40196E4
:1001C000A11DB11D05C026E8230F0296A11DB11D7A
:1001D000209328018093290190932A01A0932B0159
:1001E000B0932C0180912D0190912E01A0912F01AF
:1001F000B09130010196A11DB11D80932D01909306
:100200002E01A0932F01B0933001BF91AF919F9128
:100210008F913F912F910F900FBE0F901F901895C7
:100220003FB7F89480912D0190912E01A0912F015C
:10023000B091300126B5A89B05C02F3F19F001965B
:10024000A11DB11D3FBF6627782F892F9A2F620FFE
:10025000711D811D911D42E0660F771F881F991F38
:100260004A95D1F70895CF92DF92EF92FF92CF9304
:10027000DF936B017C010E941001EB01C114D104DA
:10028000E104F10479F00E9410016C1B7D0B683EC3
:100290007340A0F381E0C81AD108E108F108C85101
:1002A000DC4FECCFDF91CF91FF90EF90DF90CF90BC
:1002B0000895789484B5826084BD84B5816084BDDE
:1002C00085B5826085BD85B5816085BDEEE6F0E0CF
:1002D000808181608083E1E8F0E01082808182602B
:1002E0008083808181608083E0E8F0E080818160AC
:1002F0008083E1EBF0E0808184608083E0EBF0E0DC
:10030000808181608083EAE7F0E08081846080837F
:100310008081826080838081816080838081806829
:1003200080831092C1000895FC0124853585F90170
:10033000E05CFF4F80819181F901EE5BFF4F2081EE
:100340003181821B930B8F7399270895FC0184855B
:100350009585FC01E05CFF4F40815181FC01EE5B23
:10036000FF4F208131814217530741F00190F08106
:10037000E02DE80FF91F808190E008958FEF9FEF47
:100380000895FC0184859585FC01E05CFF4F408168
:100390005181FC01EE5BFF4F2081318142175307F1
:1003A00079F0A081B181A80FB91F8C912081318192
:1003B0002F5F3F4F2F7333273183208390E00895C1
:1003C0008FEF9FEF0895FC0181A1882329F0A48974
:1003D000B5898C9186FFFBCF11A20895CF93DF934F
:1003E000FC0126853785D901A05CBF4F8D919C917A
:1003F000119701968F739927E901CE5BDF4F4881F2
:10040000598184179507D9F30D90BC91A02DA20FA7
:10041000B31F6C93A685B785A05CBF4F11969C93C4
:100420008E93A689B7892C9181E090E0078C02C059
:10043000880F991F0A94E2F7282B2C9381E081A35F
:100440000488F589E02D80818064808381E090E0DC
:10045000DF91CF91089508951F920F920FB60F92DA
:1004600011242F933F934F938F939F93EF93FF9379
:100470008091C00082FD1CC04091C6008091D701D0
:100480009091D80101968F7399272091D9013091CD
:10049000DA018217930771F0E091D701F091D8014A
:1004A000E956FE4F40839093D8018093D70102C054
:1004B0008091C600FF91EF919F918F914F913F9155
:1004C0002F910F900FBE0F901F90189581E391E030
:1004D0000E949401892B11F00C942B0208951F9215
:1004E0000F920FB60F9211242F933F938F939F93E8
:1004F000EF93FF93209193013091940180919501A6
:10050000909196012817390731F48091C1008F7DB1
:100510008093C10014C0E0919501F0919601ED5ACD
:10052000FE4F2081809195019091960101968F73E5
:10053000992790939601809395012093C600FF918F
:10054000EF919F918F913F912F910F900FBE0F9040
:100550001F901895CF92DF92EF92FF92CF93DF9387
:10056000EC016A017B01411581EE580761057105B7
:10057000F9F0EC89FD8981E090E008A002C0880FC5
:10058000991F0A94E2F7808360E079E08DE390E0C0
:10059000A70196010E949704215031094109510990
:1005A0005695479537952795211580E1380798F09E
:1005B000EC89FD89108260E874E88EE190E0A70183
:1005C00096010E949704215031094109510956951D
:1005D000479537952795E889F9893083EA89FB891A
:1005E000208319A2EE89FF89408181E090E09C017F
:1005F0000C8C02C0220F331F0A94E2F7422B408377
:10060000EE89FF8940819C010D8C02C0220F331FAF
:100610000A94E2F7422B4083EE89FF8940819C01D6
:100620000E8C02C0220F331F0A94E2F7422B408344
:10063000EE89FF8920810F8C02C0880F991F0A94D0
:10064000E2F7809582238083DF91CF91FF90EF9036
:10065000DF90CF900895109234011092330188EE0C
:1006600093E0A0E0B0E08093350190933601A09331
:100670003701B09338018BE191E090933201809380
:10068000310187E991E090933E0180933D0183E53C
:1006900091E09093400180933F0185EC90E090932E
:1006A00042018093410184EC90E090934401809357
:1006B000430180EC90E0909346018093450181ECEA
:1006C00090E0909348018093470182EC90E09093F2
:1006D0004A018093490186EC90E090934C0180930D
:1006E0004B0184E080934D0183E080934E0187E0CD
:1006F00080934F0185E08093500181E08093510108
:1007000008950E9459010E945F00C6E6D2E00E944F
:1007100067002097E1F30E946602F9CFCF92DF9243
:10072000EF92FF920F931F93CF93DF936C017A01A7
:10073000EB01E60EF71E00E010E0CE15DF0561F0DC
:100740006991D601ED91FC910190F081E02DC601F7
:100750000995080F191FF1CFC801DF91CF911F91A3
:100760000F91FF90EF90DF90CF9008956115710584
:1007700081F0DB010D900020E9F7AD0141505109F6
:10078000461B570BDC01ED91FC910280F381E02DBB
:10079000099480E090E008950C94B603DC01ED919B
:1007A000FC910190F081E02D09940F931F93CF935A
:1007B000DF93EC016DE00E94CE038C016AE0CE0174
:1007C0000E94CE03800F911FDF91CF911F910F9157
:1007D00008958F929F92AF92BF92CF92DF92EF9245
:1007E000FF920F931F93CF93DF93CDB7DEB7A197FF
:1007F0000FB6F894DEBF0FBECDBF7C01C42EE52F2F
:10080000CB01D22E19A221E02D1510F02AE0D22E14
:100810008E010F5D1F4F8D2C912CA12CB12C6C2DB6
:100820007E2FA50194010E9497048C2DD29E8019E1
:100830001124015011098A3014F4805D01C0895CD3
:10084000F8018083211531054105510521F0C22EA3
:10085000E32FCA01E4CFB801C7010E94B603A196F5
:100860000FB6F894DEBF0FBECDBFDF91CF911F91C1
:100870000F91FF90EF90DF90CF90BF90AF909F903F
:100880008F900895CF92DF92EF92FF920F931F9374
:10089000CF93DF93EC016A017B012115310579F4D7
:1008A000E881F9810190F081E02D642FDF91CF91F3
:1008B0001F910F91FF90EF90DF90CF9009942A3015
:1008C0003105E9F477FF1AC06DE20E94CE038C0176
:1008D00044275527BA014C195D096E097F092AE0A2
:1008E000CE010E94E903800F911FDF91CF911F91EC
:1008F0000F91FF90EF90DF90CF9008952AE0B7011D
:10090000A601CE01DF91CF911F910F91FF90EF9043
:10091000DF90CF900C94E9039A01AB01662757FD55
:100920006095762F0C944204F8940C94BF04A1E2D5
:100930001A2EAA1BBB1BFD010DC0AA1FBB1FEE1F59
:10094000FF1FA217B307E407F50720F0A21BB30BA4
:10095000E40BF50B661F771F881F991F1A9469F720
:1009600060957095809590959B01AC01BD01CF017C
:100970000895EE0FFF1F0590F491E02D0994F8946F
:02098000FFCFA7
:100982000000DB01200008000E0F101112131415D5
:100992000141003D00200000000000EE018E0394A2
:0809A20001C101A601E30100FF
:00000001FF
